:020000040020DA
:10400000F87F00201D412000218E2000218E2000FD
:10401000218E2000218E2000218E2000218E200064
:10402000218E2000218E2000218E2000578E20001E
:10403000218E2000218E2000218E2000218E200044
:10404000218E2000218E2000218E2000218E200034
:10405000218E2000218E2000218E2000218E200024
:10406000218E2000218E2000218E2000218E200014
:10407000218E2000218E2000218E2000218E200004
:10408000218E2000218E2000218E2000218E2000F4
:10409000218E2000218E2000218E2000218E2000E4
:1040A000218E2000218E2000218E2000218E2000D4
:1040B000218E2000218E2000218E2000218E2000C4
:1040C000218E2000218E2000218E2000218E2000B4
:1040D000218E2000218E2000218E2000218E2000A4
:1040E000218E2000218E2000218E2000218E200094
:1040F000218E2000218E200010B5074C54F8043C7E
:10410000B3F1FF3F06D0043C984754F8043DB3F1A7
:0C411000FF3FF9D110BD00BFDC9920007A
:10411C0040400949094A086004319142FBDBFFF732
:10412C00E5FF00BF00F0C2F900F0CEF901B405F0D4
:10413C006BFA01F091F8000004000020A40C0020A0
:10414C00F0B5CB6881B004460D461746002B2DD038
:10415C0023602B68002623616B68666123622A69E1
:10416C00A661E4616662A66205F10801204602F0D0
:10417C00ADFB2B69A2686660D218A2F140034FF028
:10418C00807142F8401C0B4A01A942F001029A636B
:10419C0047F00102DA63204641F8047DE36069468A
:1041AC004FF4406202F00EFE01B0F0BD024B1B68F2
:1041BC00CEE700BF5952200078010020294B30B5C2
:1041CC00186844682246002C47D063683F2B07D8F8
:1041DC00302B11D0D268002A3FD053683F2BF7D92F
:1041EC00303B5360C1683039C16053B11268302123
:1041FC00D018D150043030BD00235360C168303921
:10420C00C160016801290BD0956875B1D468BCB147
:10421C00EC60D2F80CC00139CCF808500160E5E72D
:10422C000021416081600160E0E70029DED0D4F814
:10423C000CC00139C0F804C00160CCF80850D5E7B7
:10424C000029D3D0D0F808C00139DCF808C00160CF
:10425C00C0F808C0CCF80C40C8E701F05DF80020AD
:10426C00C9E700BF4C000020F0B58CB000240A94C4
:10427C000A9B4FF4406701930094029403940497B3
:10428C00FFF79CFF44F23012C0F22002694605464B
:10429C00FFF756FF6FF000430B930B9B0126069321
:1042AC000596079408940997FFF788FF46F6753230
:1042BC00C0F2200205A9FFF743FF40F29C13C2F2A3
:1042CC0000031E70E86805F009F80CB0F0BD00BFE3
:1042DC002DE9F0076B4E7368002B76D059680029D6
:1042EC0073D0DFF8A481B24600270022D8F8005022
:1042FC005A60F268521AF2605A68BAB9DAF8004099
:10430C00012C76D09868002800F09B80D3F80CC064
:10431C00BCF1000F00F0A580C0F80CC0DA6890600A
:10432C00DAF80020013ACAF800205A681C68A41870
:10433C0049D00F2947D961602460A760E760EB681A
:10434C0059186B68E960D4F800C06068002B40D045
:10435C00D3F80090604448450CBF1A461A4604D066
:10436C00D26812B111688842FAD159688944CC4597
:10437C0007D0DB68002B2BD01868596841188C4586
:10438C00F7D119461346CBB160685A68821862603F
:10439C002868012802BF6F60AF602F600ED09A684A
:1043AC00002A2ED0D3F80CC0BCF1000F33D0C2F8C9
:1043BC000CC0DB689A602B68013B2B6019B14A6812
:1043CC006368D3184B60736873B9BDE8F007704726
:1043DC0013462968002929D1A160E1602A686C6024
:1043EC000132AC602A60CEE7596800297FF47DAFBA
:1043FC00EBE7CAF80420CAF80820CAF800205A686B
:10440C0094E70028DAD06B68DB686B609A602B68E5
:10441C00013B2B60D2E70028D0D0AB689B68AB6027
:10442C00C3F80CC02B68013B2B60C7E7AA68394660
:10443C00D460AA68E760A2602A68AC6001322A6086
:10444C00A1E7002C3FF472AFDAF80400C068CAF898
:10445C0004008260DAF80020013ACAF800205A6899
:10446C0064E7002C3FF462AFDAF808008068CAF801
:10447C000800C260DAF80020013ACAF800205A6835
:10448C0054E700BF8C0C00204C00002040F21403B9
:10449C00C2F200030A2100221A71196040F20C03C7
:1044AC00C2F2000319601A71704700BF00B501F029
:1044BC00F9F900BD40F21C03C2F200030A221A6093
:1044CC0000221A71704700BF2DE9F04F1C4891B0C3
:1044DC0000F0CAFE00241B481B4D00F0C5FE4FF037
:1044EC000A0844F24026072CC5F8008010AFC0F231
:1044FC000F06A1464FF0100B09D9124800F0B4FE7C
:10450C003846C5F80080109602F09EF800240F483B
:10451C0000F0AAFE04F12813C5F800B019786A4619
:10452C000023094800F0FCFE11AB181800F8449C5D
:10453C000134684600F098FE072CDED8E7E700BF90
:10454C0048962000549620001C00002078972000EC
:10455C0070B5BD4D0023286882B0019343683BB110
:10456C005A68272A08D8182A06D0DB68002BF7D1FE
:10457C0000F0D2FE00241EE0183A5A60C268183AC5
:10458C00C2605A6892B90468012C00F0F1809968F5
:10459C00002900F01381DE68002E00F03E81CE6011
:1045AC00DA6891600268013A02605A681B68182147
:1045BC009C1899500434022323700323637008233E
:1045CC0063604BF22003C4F20D03E36000224BF254
:1045DC0020432261C4F20D031968042021F0080164
:1045EC0019600123A3604BF20043C4F20D03196858
:1045FC0041F00801196021786378043103EBC101A3
:10460C0044F20003C4F20D0343F82100217849F26F
:10461C001C430903C4F20D03CB186168196021789F
:10462C00D4F804C00803C9000CFA01F149F218735C
:10463C00C4F20D03C318186820EA0101196023693C
:10464C0063B163782178204603EBC1017F4B009264
:10465C0043F8214001A96B4604F000FB7C4E01237A
:10466C00B4603373A368022B00F08C80E368FF22E4
:10467C001A60784800F0F8FD0A24774800F0F4FD41
:10468C007648346000F0F0FD734800F0EDFD2868CA
:10469C00346043683BB15A681F2A08D8102A06D0E8
:1046AC00DB68002BF7D100F037FE00241DE0103A38
:1046BC005A60C268103AC2605A688AB90468012C00
:1046CC005BD09968002900F09080DE68002E00F025
:1046DC009880CE60DA6891600268013A02605A688C
:1046EC001B6810219C18995004345D4B1B68236087
:1046FC00286843683BB15A682B2A08D81C2A06D074
:10470C00DB68002BF7D100F007FE00211CE01C3AFF
:10471C005A60C2681C3AC2605A6882B90568012D99
:10472C0021D09968002955D0DE68002E00F08180D8
:10473C00CE60DA6891600268013A02605A681B68C0
:10474C001C2099189850043100230B72CB60454BF8
:10475C00012249600B600A744C61206803681B6875
:10476C00984702B070BD4260826002605A68E6E70A
:10477C004260826002605A6818E7426082600260A0
:10478C005A68ADE7227849F200431203C4F20D03D4
:10479C00D3181968626841EA02021A60E368FF22C2
:1047AC001A60227849F200431203C4F20D03D318A5
:1047BC001A68616822EA01021A605AE7002C3FF479
:1047CC00F5AE4168C96841608A600268013A0260CE
:1047DC005A68EBE6002DB2D04168C96841608A6026
:1047EC000268013A02605A68A9E7002C3FF478AFDE
:1047FC004168C96841608A600268013A02605A687F
:10480C006EE7002C3FF46CAF816889688160CA60E8
:10481C000268013A02605A6862E7002C3FF4C6AEA7
:10482C00816889688160CA600268013A02605A68CE
:10483C00BCE6002D83D0816889688160CA600268FB
:10484C00013A02605A687AE74C000020E801002027
:10485C001C000020C496200054962000E0962000F6
:10486C00DC010020449620002DE9F04FACB020AACA
:10487C000192CD4B019C0FCB07C423801B0C8DF8F0
:10488C008E300B232093C94B186844682346002CA8
:10489C0000F0648162681F2A08D8102A06D0DB68F1
:1048AC00002B00F05B815A681F2AF6D9103A5A6027
:1048BC00C268103AC2605A68002A00F041811B6835
:1048CC0010209918043198500391B94B039C1B6824
:1048DC00B848236000F0C8FCB74800F0C5FC40F2B3
:1048EC001C020A25C2F200021560B44800F0BCFCA0
:1048FC0006AC4DF29001C0F2030122460023B048F1
:10490C0000F00EFD2CAA1318002203F8982C204658
:10491C0000F0AAFCAB4800F0A7FCA74800F0A4FCF0
:10492C0046F2676440F21C03C2F20003C6F26664EE
:10493C001D6004944DF290024BF220064BF2204580
:10494C004BF20044C4F20D06C4F20D05C0F2030292
:10495C00C4F20D0448F2A06802233746DFF868A2BF
:10496C002E460DF1A0090DF1980B0592C0F201082D
:10497C002546002B00F09E8002218DF86C1003213F
:10498C008DF86D10002229921F923268082122F0B6
:10499C000802326001221D922A681C910A432A6087
:1049AC009DF86C209DF86D00043200EBC202920061
:1049BC0002F1804202F55422042010609DF86C0034
:1049CC0049F21C420003C4F20D02821811609DF8DA
:1049DC006C0049F218724FEA003CC00011FA00F06A
:1049EC00C4F20D026244D2F800C000242CEA000C80
:1049FC00C2F800C0FF223A609DF86C109DF86D2043
:104A0C00484602EBC10202934AF822401E97CDF8A9
:104A1C00A08001F019FE02228DF8582003228DF897
:104A2C0059203268082122F00802326001221892C3
:104A3C002A6817910A432A609DF858009DF859205E
:104A4C00043002EBC002920002F1804202F55422C3
:104A5C00042010609DF8580049F21C420003C4F277
:104A6C000D02821811609DF8580049F218724FEA35
:104A7C00003CC00011FA00F0C4F20D026244D2F8FE
:104A8C0000C027942CEA000010603C609DF859206F
:104A9C009DF85810584602EBC10219971A944AF81F
:104AAC002240CDF8988001F0CFFD029B013B002BFA
:104ABC007FF462AF454800F0D7FB20A800F0D4FB90
:104ACC003D4800F0D1FB40F21C030A24C2F2000363
:104ADC001C604FF0FF338DF8AC308DF8AD30039A7D
:104AEC0001238DF8AF3010681022036800922BA9B7
:104AFC000DF1AF029C6920ABA047354800F0B4FB28
:104B0C002D4800F0B1FB40F21C03C2F200030A2452
:104B1C001C609DF88430049A2F3B82FB0321DA172A
:104B2C00C2EBA10202EB820252009B1A30338DF8C9
:104B3C008430059B2AA82A9301F086FD02231BE7EB
:104B4C00016801292BD09D68E5B1DC685CB1EC6093
:104B5C00DA680139016095605A68B0E600F0DCFB58
:104B6C0000220392B1E600293FF4A9AED0F808C0A8
:104B7C000139DCF808C00160C0F808C0CCF80C2082
:104B8C005A689CE600293FF49AAED4F80CC001395F
:104B9C000160C0F804C0CCF808205A688FE60260A7
:104BAC00426082605A688AE6849720004C0000209C
:104BBC00DC0100202097200054962000389720001C
:104BCC001C00002058972000E80100206897200066
:104BDC007C9720002DE9F04FB94FA0B01D468246BE
:104BEC00B848D6B200F040FB29466A46384600F079
:104BFC00E9FB20AA10184FF0000800F8808C6846DA
:104C0C0000F032FBB04800F02FFB0A233B609AF80F
:104C1C0010306C46B34202D020B0BDE8F08F0223B6
:104C2C008DF8543003238DF855304BF22043C4F2E9
:104C3C000D031868082120F0080018600123179351
:104C4C004BF20043C4F20D0318684FF0040C0843F8
:104C5C0018609DF854009DF85530043003EBC000EB
:104C6C0044F20003C4F20D0343F820C09DF8540035
:104C7C0049F21C430003C4F20D03C31819609DF8DC
:104C8C00540016914FEA003CC000814049F2187361
:104C9C00C4F20D036344D3F800C04BF220022CEA9B
:104CAC0001011960C4F20D02FF23136018929DF8E4
:104CBC0055309DF85420CDF87C80CDF86480DFF819
:104CCC000C82002603EBC20348F8236048F2A06371
:104CDC00C0F2010320A840F8083D01F0B5FC022306
:104CEC008DF8403003238DF841304BF22043C4F251
:104CFC000D031868082120F0080018600123129396
:104D0C004BF20043C4F20D0318684FF0040C084337
:104D1C0018609DF840009DF84130043003EBC00052
:104D2C0044F20003C4F20D0343F820C09DF8400088
:104D3C0049F21C430003C4F20D03C31819609DF81B
:104D4C00400011914FEA003CC000814049F21873B9
:104D5C00C4F20D036344D3F800C04BF220022CEADA
:104D6C000101C4F20D021960166013929DF84130D6
:104D7C009DF8402020A803EBC20348F8236048F2BA
:104D8C00A063C0F2010340F8103D4FF00A081D96D5
:104D9C00149601F059FC4C4800F066FAC7F80080F4
:104DAC004B4800F061FA484800F05EFAC7F8008002
:104DBC00484800F059FAD5F8C8106A4633463846C8
:104DCC0000F0AEFA20AB181800F8806C684600F0C2
:104DDC004BFA414800F048FA10233B604FF00108B1
:104DEC00DFF8DC9005EB080399796A460023484606
:104DFC0000F096FA20AA101800F8806C684600F0B3
:104E0C0033FAB8F1010F4FF0000B53D055D94FF0D6
:104E1C000A083248C9F8008000F026FA2A4800F047
:104E2C0023FA2F48C9F8008000F01EFAD5F80910B3
:104E3C006A46484600F0BAFA20AA131803F880BC58
:104E4C00684600F011FA274800F00EFA1E4800F0F0
:104E5C000BFAC9F80080D5F8093005F10906012BC9
:104E6C0014DD4FF0040805EB08035B7A68468DF8F7
:104E7C0000308DF801B000F0F7F91B4800F0F4F9A0
:104E8C00336808F1010802334345ECDA0A240E4872
:104E9C0000F0EAF93C600E4800F0E6F90A4800F030
:104EAC00E3F9DAF814303C601868294603689B6A09
:104EBC009847B1E60D4800F0D7F908F101088FE7E3
:104ECC001C0000205896200054962000E801002079
:104EDC0068962000809620008C962000A8962000D2
:104EEC00AC962000BC962000B8962000A49620001A
:104EFC0070B500F07DFABA494B68002B00F059816F
:104F0C005A6846F20300824209D8B2F5C04F06D067
:104F1C00DB68002B00F04D815A688242F5D9A2F56E
:104F2C00C0425A60CA68AE48A2F5C042CA605A680C
:104F3C0092B90468012C00F0EF809968002900F008
:104F4C001E81DD68002D00F02881CD60DA6891604B
:104F5C000268013A02605A681968DFF888C20023B7
:104F6C008C18CCF80030CCF80430CCF80830CCF8E5
:104F7C000C304CD04FF4C0408C506060A360E360A8
:104F8C00DCF80C301B18CCF80C30DCF8043051F881
:104F9C0002E06068002B00F0A7801D687044A842F6
:104FAC000CBF1A461A4604D0D26812B11168884256
:104FBC00FAD159686D18AE4508D0DB68002B00F0AB
:104FCC0092801868596841188E45F6D119461346D7
:104FDC00C3B160685A6882186260DCF8000001286E
:104FEC0000F092809A68002A00F09B80DD68002D0A
:104FFC0000F0A680D560DB689A60DCF80030013BDD
:10500C00CCF8003019B14A686368D3184B60764B02
:10501C00C3F800C000F02CFB00F046FC734B0022E0
:10502C0093E8300043F24803C4F203031968704B51
:10503C0055181868234643F1000644F66D63C4F214
:10504C00C61305FB03F505F5405503683935694C66
:10505C00B5F1FF3F28BF0135DB6A2560984703781F
:10506C00002B40F098804178003918BF012149F29B
:10507C000043C4F20D031A6822F020021A6044F2B5
:10508C009402C4F20D020123136047F20802C4F229
:10509C000D02B523136047F20002C4F20D0213682F
:1050AC0013F0800FFBD047F21002C4F20D0213680C
:1050BC0047F20C02C4F20D02126881EA050502EBFC
:1050CC00032244F66D63C4F2C61303FB05F505F524
:1050DC0040553935B5F1FF3F28BF013542F30B136D
:1050EC005D40256070BD1346DCF80010002936D1F8
:1050FC00A160E160DCF80020CCF804400132CCF86F
:10510C000840CCF8002063E70023CCF80430CCF83E
:10511C000830CCF8003075E74260826002605A6853
:10512C001AE700283FF46EAFDCF80430DB68CCF8EB
:10513C0004309A60DCF80030013BCCF8003061E7B9
:10514C0000283FF45FAFDCF808309B68CCF80830DF
:10515C00DD60DCF80030013BCCF8003052E7DCF8C5
:10516C0008200021D460DCF80820E160A260DCF8A3
:10517C000020CCF808400132CCF8002028E7002CA5
:10518C003FF4EAAE4168C96841608A600268013A3E
:10519C0002605A68E0E6012169E7002C3FF4DCAEBE
:1051AC00816889688160CA600268013A02605A6845
:1051BC00D2E6114C01232371104800F055F8104829
:1051CC0000F052F8DFF81CC00A2323600023CCF84F
:1051DC000030CCF80430CCF80830CCF80C3016E7A2
:1051EC008C0C00203C0000204C0000209C0C00206B
:1051FC00DC010020580000202C0000209497200097
:10520C005496200000B500F0D3F940F2A41300220C
:10521C00C2F200031A6040F2A013C2F200031A603B
:10522C0040F23403C2F200030A211A71196040F2F1
:10523C002C03C2F2000319601A7100BD40F2500336
:10524C00C2F2000300221A605A60704700B5004693
:10525C0001F092FE00BD00BF00B501F08DFE00BD57
:10526C0000B503F043FE00BD2DE9F04500250746CF
:10527C007C5D1C4EAA46DFF8708084B1092C29D0C5
:10528C000A2C18D0336820460133336003F08EFEAD
:10529C0033684F2B05DC01357C5D002CEED1BDE86D
:1052AC00F0850D2003F082FE0A2003F07FFE01350D
:1052BC00C6F800A0F0E70D2003F078FE204603F0BE
:1052CC0075FED8F80030C6F800A00133C8F80030DD
:1052DC000135E1E7204603F069FE336801350833F8
:1052EC003360D9E7A0010020A401002010B549F2D9
:1052FC00AC7040F22C040123C2F20004C0F2200076
:10530C002371FFF7B1FF49F25460C0F22000FFF7A0
:10531C00ABFF0A23236010BD00B5FFF7A1FF00BD52
:10532C0070B400293BD0B1F5807F1BD9D0F800C0F8
:10533C00BCF1080F14BF00240124BCF1100F08BFEE
:10534C0044F0010484B14FF0300C02F803C0D0F8E3
:10535C0000C00133BCF1100F06D14FF0780C02F8ED
:10536C0003C00133D0F800C00C465D1CB4FBFCF448
:10537C001E462B46002CF8D10B4C9219B1FBFCF3BA
:10538C000CFB131C14F80C3002F80139D0F800C0D7
:10539C00B1FBFCF10029F1D1284670BC70473021DB
:1053AC00D154581CF9E700BFC8972000002900B55C
:1053BC0003DB0023FFF7B4FF00BD2D23137049421C
:1053CC000123F7E7302310B41370084C7823537083
:1053DC00072301F00F0C14F80CC0D0180909013B7D
:1053EC0080F802C0F5D20A2010BC7047C897200084
:1053FC0000B500F003F800F095F800BDDFF81CC113
:10540C0047F2F832C2F20002CCEB020270B4002A6E
:10541C004AD00023424DCCF800C0CCF80420CCF884
:10542C000830CCF80C30EB686446D318EB606B6832
:10543C00002B3CD01E680CEB8200B0420CBF1A460D
:10544C001A4604D0D26812B111688842FAD1596850
:10545C0006EB8106B44208D0DB68002B26D05868D6
:10546C00196801EB80018C42F6D119461346ABB199
:10547C00DCF804005A688218CCF804202C68284AFE
:10548C00012C23D09868002825D0DD68002D3AD057
:10549C00C560DB6898601368013B136021B14A68F2
:1054AC00DCF80430D3184B6070BC704713462A6884
:1054BC001B48D2B90121CCF80820CCF80C20016093
:1054CC00C0F804C0C0F808C01146D0E700235360F0
:1054DC0093601360E2E7002CE0D05368DB68536004
:1054EC0098601368013B1360D8E781680132C1F8FA
:1054FC000CC08168CCF808100021CCF80C10C0F856
:10550C0008C00260B3E7002CC8D093689B68936016
:10551C00DD601368013B1360C0E700BFA40C0020E2
:10552C008C0C002043F20C03C4F203031A68122003
:10553C0022F001021A6042F20802C4F20D02116854
:10554C0041F00801116042F20C02C4F20D02116824
:10555C0041F00801116042F21002C4F20D02116810
:10556C0041F00801116043F200020021C4F2030271
:10557C00116043F20402C4F20302106043F22802E9
:10558C00C4F203024FF0FF30106043F23802C4F251
:10559C000302116043F21802C4F20302116841F0D5
:1055AC00010111601A6842F001021A60704700BFD5
:1055BC004CF22043C4F20D031A6822F0C0021A60A8
:1055CC004CF20043C4F20D031A6822F0C0021A60B8
:1055DC0044F2F8030122C4F20D031A6044F2FC03F6
:1055EC00C4F20D031A6042F20002C4F20D021168FB
:1055FC004FF6F873CFF6DC6301EA030343F40813A8
:10560C0042F204011360C4F20D010A6840F2000377
:10561C00C0F2011302EA0303002BF6D142F200039D
:10562C00C4F20D031A6822F4E0621A6042F204021A
:10563C00C4F20D02136813F0806FFBD0704700BFEB
:10564C004EF61453CEF200031A6842F001021A60AF
:10565C0042F29803C4F20D031A6842F001021A6078
:10566C004EF60853CEF200034FF401121A60704745
:10567C0000B5FFF7E5FF00F0AFFD00F019F800F002
:10568C009BF800F009F800F001F800BD00B500200F
:10569C0000F084FC00BD00BF044B082203F58071B0
:1056AC0083F8002801338B42FAD17047680300203D
:1056BC004EF210034EF21802CEF200030021CEF28D
:1056CC000002196011604EF21402CEF200024FF487
:1056DC00FA41116006221A6048F6857140F2682280
:1056EC00C2F20002C0F22001D1631A6842F001023A
:1056FC001A60704740F261030022C2F200031A7074
:10570C0040F26003C2F200031A7040F25C03C2F272
:10571C0000030221196040F67C43C2F200031A60B8
:10572C0040F68843C2F2000349F2380C1A60C4F206
:10573C00080C032349F2400049F24C01CCF800302C
:10574C0030B4C4F208000424C4F2080149F2440342
:10575C000460C4F208030A601D6845F040051D6032
:10576C001D6845F008051D601D6845F008051D60A5
:10577C002023CCF8004002600B6049F25003C4F2C5
:10578C0008031A6842F080021A601A6842F010028C
:10579C001A6049F21C03C4F2080301221A6049F290
:1057AC002403C4F208031A6049F22C03C4F2080360
:1057BC001C6030BC704700BF4BF22043C4F20D0399
:1057CC001A682DE9F04822F004021A604BF20043EB
:1057DC00C4F20D031A6842F004021A604BF2100373
:1057EC00C4F20D03FF221A6049F23C02C4F2080213
:1057FC00136843F001031360136843F00203136052
:10580C00136813F0800FFBD049F20403C4F20803B1
:10581C001A6822F001021A60FFF76CFF1D4B01227F
:10582C001A601D4A1D4BC3F8F0204EF20413CEF241
:10583C0000034FF480521A60EFF31087FFB207B1E8
:10584C0062B6174843F24806C4F2030690E8001803
:10585C00316800225B4612EB010B49F20002C0F2E8
:10586C00D03243F1000C00231BEB020B4CEB030C6E
:10587C0090E80C00316800241546621845F10003CD
:10588C009C45F5D801D19345F2D807B162B6BDE875
:10589C00F08800BF5C0000203991200068020020D5
:1058AC009C0C0020704700BF00B500F0EDFC00F030
:1058BC0001F800BD10B5324B186841680B46002941
:1058CC0059D04A68272A07D8182A05D0DB68002B3C
:1058DC0051D05A68272AF7D9183A5A60C268183A30
:1058EC00C2605A6892B9D0F800C0BCF1010F21D047
:1058FC009C68002C26D0D96800292FD0E160DA688A
:10590C000CF1FF3CC0F800C094605A68196818206C
:10591C008B1888500433012119721A4900221A601D
:10592C0019610A2218495A60086840B1DA60174AAE
:10593C00136010BD0260426082605A68E6E70B603B
:10594C005A68F3E7BCF1000FE0D0C9680CF1FF3CDA
:10595C00C0F800C041608A605A68D7E7BCF1000FFC
:10596C00D4D081680CF1FF3C8968C0F800C081601C
:10597C00CA605A68CAE7FFF7CFFC0023CBE700BF29
:10598C004C000020AD6C2000680C00207C01002035
:10599C002DE9F04772B6454A1368116813F0080FE9
:1059AC0021EA0301116003D0414A116801311160F1
:1059BC0013F0020F70D0DFF8FC80D8F80030002B09
:1059CC006AD048F610024FF0000CC4F20802384FAF
:1059DC0048F61404C2F800C0C4F208043E68D4F8B7
:1059EC0000A048F61804C4F20804D4F8009032025F
:1059FC004FEA09291CEB090442F1000514EB0A01DA
:105A0C0048F62404C4F20804D4F800A045F10002BE
:105A1C004FEA0A44091948F62004C4F208044FEA74
:105A2C001A45D4F800A042EB05024FEA0A640919A2
:105A3C0048F61C044FEA1A25C4F2080442EB05028E
:105A4C00D4F800A011EB0C01D7F800C042EB0A020D
:105A5C00664505D000244FF48075091942EB050208
:105A6C00DFF854C09CE83000954215D812D00022C3
:105A7C00C8F8002048F60802C4F208020821116098
:105A8C0062B698474EF20013CEF200034FF08062DC
:105A9C001A6009E08C42EAD94EF20013CEF20003F0
:105AAC004FF080621A6062B6BDE8F087D801002022
:105ABC00C4010020B0010020A801002040F2BC135A
:105ACC0000210022C2F2000383E8060040F2D0134A
:105ADC00C2F2000383E8060040F2B413C2F20003E2
:105AEC0083E8060048F60403C4F208031A6848F673
:105AFC000C0122F001021A6048F60802C4F20802F6
:105B0C000020C4F2080110600860196845F69D1069
:105B1C0021F0020119601968C0F2200041F008015F
:105B2C00196040F26821C2F20001C1F8C4004EF2C3
:105B3C000411CEF2000102200860116841F0080146
:105B4C0011601A6842F001021A6070472DE9F001E9
:105B5C00D4B20C7246680023CB6049600F1D002E36
:105B6C0022D0D0F8088098F80430A34222D8D8F874
:105B7C0008308BB1454693F804C0A44507D9CDB184
:105B8C000136AF604660CB60BDE8F00170479A68A3
:105B9C0012B11D461346EEE7C36801369F60002321
:105BAC00CB604660C760EFE70123CE60436087603F
:105BBC00C760E9E70136C1F80C8046608760E3E70F
:105BCC0010B44468012C17D0836801F1040C9C4577
:105BDC0017D04BB19A682AB1944503D013469268FA
:105BEC00002AF9D1CA689A60C268944508BFC3609C
:105BFC00013C446010BC704700238360C360436069
:105C0C00F8E7002CF6D0CB68013C83604460F1E7E8
:105C1C00F0B5846806461746CDB29CB1002001E071
:105C2C00A46874B12379AB42FAD120683146036879
:105C3C002A46D3F800C03B46E047A4680120002C5C
:105C4C00F0D1F0BD2046FCE78368C9B27BB10020DF
:105C5C0001E09B6843B193F804C08C45F9D122B99B
:105C6C0018689B68002BF6D17047013AF1E718468B
:105C7C00FAE700BFC64BE222036048F63803C4F2D1
:105C8C0008031A60EF221A6048F28C622DE9F04189
:105C9C00C4F208020026166048F29062C4F20802B0
:105CAC00166048F29462C4F20802166048F2586218
:105CBC00044646608660C660C4F20802F820106094
:105CCC0048F2E872C4F208020920106048F2C86277
:105CDC00C4F208021520106048F60402C4F208024F
:105CEC000B20106048F2B862C4F208020120106068
:105CFC00EE221A60ED221A6048F25463C4F20803D3
:105D0C001A68A44F22F001021A6048F28C53C4F2B4
:105D1C0008031E6048F25063FF22C4F208031A60A5
:105D2C0048F24063C4F208031A6048F29473C4F258
:105D3C0008031A6048F63403C4F208031E6048F6E0
:105D4C003003C4F208031E6048F62C03C4F20803A7
:105D5C001E60914B21612360E66126626662A66239
:105D6C00E662354626634FF0E0086663A663E66399
:105D7C00C4F89060C4F89460386843683BB15A68C2
:105D8C00EF2A08D8E02A06D0DB68002BF7D1FFF702
:105D9C00C3FA002323E0E03A5A60C268E03AC260DA
:105DAC005A68BAB9D0F800C0BCF1010F00F0D1802C
:105DBC009968002900F0D280D3F80CE0BEF1000FF6
:105DCC0000F0D980C1F80CE0DA6891600268013A01
:105DDC0002605A6819688B1841F80280043349F63E
:105DEC0041021A80A2190436502E83F8BC50C3F815
:105DFC00C050C3F8C850C3F8CC30C3F8D050C3F867
:105E0C00D430C3F8D8501364B6D140F22C03C0F28E
:105E1C0028031A7840F22D03C0F22803197840F2B7
:105E2C002E0351402175C0F228031A7840F22F033B
:105E3C00C0F228031B7848F2246683EA020248F277
:105E4C00D053C4F208036275196048F2D453C4F2FB
:105E5C0008031A6048F20463C4F208031A68C4F217
:105E6C00080622F020021A603368204643F04003F3
:105E7C00336048F20063C4F208031A6842F001026E
:105E8C001A6048F20863C4F208031A6842F001026F
:105E9C001A603368402243F02003336048F23063C9
:105EAC00C4F208031A601A23A36148F23C63C4F2DB
:105EBC00080356221A6001F0CFF948F63403C4F2F5
:105ECC0008031D6048F63003C4F208031D6048F651
:105EDC002C03C4F208031D6048F28C63C4F208035F
:105EEC0004221A6048F29062C4F20802156048F26B
:105EFC009462C4F208020C21116042F2A802C4F2AE
:105F0C000D02116841F00101116042F2AC02C4F2C1
:105F1C000D02116841F00101116042F2B002C4F2AD
:105F2C000D02116841F001011160326822F00C027F
:105F3C0032601A6822F004021A601A6842F00402F5
:105F4C001A6048F63803C4F20803E3221A60BDE86D
:105F5C00F0814260826002605A683BE7BCF1000F3E
:105F6C003FF438AF4168C96841608A600268013A01
:105F7C0002605A682EE7BCF1000F3FF42BAF81682A
:105F8C0089688160CA600268013A02605A6821E738
:105F9C003C9820004C0000200899200042F2A803F5
:105FAC00C4F20D031A6870B542F001021A6042F295
:105FBC00AC03C4F20D031A68044642F001021A60E5
:105FCC0042F2B003C4F20D031A6842F001021A60E7
:105FDC00FFF774FD344B186841680B4600295FD0FD
:105FEC004A68AB2A07D89C2A05D0DB68002B57D00F
:105FFC005A68AB2AF7D99C3A5A60C2689C3AC2607C
:10600C005A6872B90568012D32D09E68002E34D0C2
:10601C00D96800293AD0F160DA68013D05609660D4
:10602C005A681B689C219D189950043521462846B6
:10603C00FFF720FE1D4B04EB440403EB840243F8F2
:10604C0024502A21013443F824102B239360184B3D
:10605C00184A43F82120C3F8AC204EF20013CEF2BC
:10606C0000034FF080621A604FF000621A6070BD3E
:10607C000260426082605A68D3E7002DD1D0C968B3
:10608C00013D056041608A605A68CAE7002DC8D09E
:10609C008168013D896805608160CA605A68C0E703
:1060AC00FFF73AF90025C1E74C000020DC01002085
:1060BC00680200209D75200040F69C43C2F200034C
:1060CC004DF804BD93E806004FF0010B11EB0B01EA
:1060DC004FF0000C42EB0C0283E806005DF804BBA9
:1060EC00704700BF49F21803C4F208031A6840F65F
:1060FC007043C2F20003196841EA02021A6049F2C5
:10610C000803C4F208031A6840F67443C2F2000391
:10611C00196841EA02021A6049F21003C4F208033A
:10612C001A6840F67843C2F20003196841EA020289
:10613C001A60704748F60C0340F2D812C4F20803F8
:10614C00C2F200021968106840EA010111600022D5
:10615C001A604EF28013CEF200034FF080621A6088
:10616C004EF28023CEF200031A6070474EF2841375
:10617C00CEF2000302221A604EF28423CEF2000308
:10618C001A6070470368232B0DD0252B13D0272BB7
:10619C0019D0332B01BF43F22403C4F203034FF095
:1061AC00FF321A60704740F22403C4F203034FF02D
:1061BC00FF321A60F6E741F22403C4F203034FF0F6
:1061CC00FF321A60EEE742F22403C4F203034FF0ED
:1061DC00FF321A60E6E700BF72B64EF280134FF042
:1061EC00FF32CEF200031A604EF28413CEF200039B
:1061FC001A601B491B4A0023CA500433B3F5807F35
:10620C00FAD10023DFF860C018464CF803000433C1
:10621C00B3F5807F144AF8D1144BC2F88C30C2F815
:10622C009430C2F89C30C2F8CC30114BC2F8A83074
:10623C00104BC2F8C430104BC2F8F0300F4B136443
:10624C0053649364D3640E4B0822CB600D4BC1F89E
:10625C00CC304EF20413CEF200031A60704700BF2C
:10626C0068020020B58E200064000020916120009F
:10627C007961200041612000F1602000E18B200059
:10628C00B98E2000C560200010B5314B18684168EC
:10629C000B46002957D04A68272A07D8182A05D058
:1062AC00DB68002B4FD05A68272AF7D9183A5A6066
:1062BC00C268183AC2605A6892B9D0F800C0BCF1F2
:1062CC00010F1FD09C68002C24D0D96800292DD038
:1062DC00E160DA680CF1FF3CC0F800C094605A68C9
:1062EC00196818208B18885004331A490122196137
:1062FC0019491A605A601A72486840B1DA60174A34
:10630C00136010BD0260426082605A68E8E74B601F
:10631C005A68F3E7BCF1000FE2D0C9680CF1FF3CFE
:10632C00C0F800C041608A605A68D9E7BCF1000F20
:10633C00D6D081680CF1FF3C8968C0F800C0816040
:10634C00CA605A68CCE7FEF7E7FF0023CDE700BF31
:10635C004C000020C5632000680C00206801002060
:10636C00014B0360704700BF68982000014B03602D
:10637C00704700BF6898200040F26C13C2F2000313
:10638C0000221A605A609A60704700BF00B54068DE
:10639C0000F084F900BD00BF024B00B5036003F0B0
:1063AC0069F800BD68982000024B00B5036003F04B
:1063BC0061F800BD68982000F0B572B63F4B1A68C2
:1063CC0001321A603E4A13682BB151684868013893
:1063DC000028486007DD002362B61BB158680368CB
:1063EC009B689847F0BD012B3CD0CB6800205360D4
:1063FC0098601368013B1360CB6823B1D3F804C0D9
:10640C004868604458600B689868B0F1FF3F03D04F
:10641C00013898600028DFD0D3F80CC02848C1F8A8
:10642C0004C01668002E35D047687C68A445B8BFF8
:10643C003D4609DBF868F8B1C4EB0C0CC1F804C09C
:10644C0044680546A44514DAA868002829D0CCEB8A
:10645C00040C0136C5F804C0C160A960CD60886029
:10646C001660B9E70023536093601368013B136017
:10647C00C2E7C0680028DFD19068C4EB0C0CC16087
:10648C008860C1F804C00020C860916011680131B7
:10649C001160A1E701228E60CE60026041608160D4
:1064AC009AE7CCEB040CC5F804C08860CF60B960E7
:1064BC0051601168013111608EE700BF640100204A
:1064CC006C01002030B472B6DFF880C0DCF8041028
:1064DC00E9B10B68984218BF0B462BD0DB68B3B1FF
:1064EC001A689042FAD1DCF80000184C012811D03F
:1064FC009D68002D20D0DA6892B1EA60DA68013824
:10650C00956020601AB151685B68CB18536062B615
:10651C0030BC704700226260A2602260DA68F1E74A
:10652C000028F4D0A168013889682060A160CA6095
:10653C00DA68E7E70B46D6E708B9DA68E2E7CA6833
:10654C000138626020609560DA68DBE76C0100203E
:10655C0083603B4BD1F800C01B68C0F800C05B687F
:10656C004FF47A7CBCFBF3F344F2402CC0F20F0CDA
:10657C00BCFBF3FC0B68002103EB5C03B3FBFCF3EB
:10658C00F0B54260C360006143618161C16172B664
:10659C002BB962B6136810469B689847F0BD294C1E
:1065AC0000F1100C2668002E32D0676879688B4297
:1065BC00B8BF3D461ADBFA684AB15B1ACCF8043016
:1065CC00516815468B421FDA436999420EDC5B1AFF
:1065DC004361A368C3F80CC083610023C3612368C3
:1065EC00C4F808C00133236062B6D7E7AA68CAB101
:1065FC00CB1A01366B60C2F80CC0C5F808C0C56177
:10660C008261266062B6C9E7D268002AD5D1DBE781
:10661C0001238661C6612360C4F804C0C4F808C0B5
:10662C0062B6BBE7CB1A6B60236882610133C7612A
:10663C00C7F808C02360C4F804C062B6AEE700BF58
:10664C00680100206C01002070B58EB008AC0646C5
:10665C000021204600F01CF80B4B31460CAA0C9381
:10666C00684601230D94FFF773FF204600F02AF8CB
:10667C006846FFF727FF054B20466D460C9300F04C
:10668C0035F80EB070BD00BF5498200068982000FB
:10669C000023036043608360C160704700B572B62D
:1066AC0000F10C0151E8002F02F1010241E8002336
:1066BC00002BF7D1002A01DD62B600BD00F0E4FB2F
:1066CC00FBE700BF00B572B600F10C0151E8002FDA
:1066DC00A2F1010241E80023002BF7D1002A01DBD3
:1066EC0062B600BD00F036F8FBE700BF00B572B62D
:1066FC0000F0DCFA00BD00BF40F280120023C2F2B1
:10670C000002D36013605360936040F29412C2F2A3
:10671C00000213605360704712F0FF0F18BF0C4B50
:10672C0000B51FBF1B68DA685A68DA60884209D066
:10673C0003694BB100230B6150F80C3FCB68C9685F
:10674C0002F06EFE62B600BD01230361F2E700BFEA
:10675C007C0100205C492DE9F045CB68CB681A68B8
:10676C00CB68CB6802F11C069E4263D00B68012BF0
:10677C0000F08380546A002C72D0956A002D00F0D2
:10678C008180E560D2F828C0013BCCF808400B6052
:10679C00D0F8008003231361B8F1000F25D0D0F896
:1067AC0004A002F12007DAF80430D2F820C00AF174
:1067BC0004059C452EDA5346D5F800E0D2F820C0EB
:1067CC00E6451BDC836808F10108DE605362002398
:1067DC009362C0F800808660CB68506119681046DF
:1067EC000122FFF799FFBDE8F0850123C2F8248050
:1067FC00C2F82880036046608660EDE79C68002C38
:10680C0056D008F10108E6609E6093625462C0F8AD
:10681C000080E1E7DAF80C3023B9CCE7DC68002C17
:10682C00CAD02346D3F804E0D7F800C01D1DE645B6
:10683C00F4DDC1E70B687BB1012B30D0D1F804C07B
:10684C000024DCF80CE0013BC1F804E00B60CEF84E
:10685C000840C1F80CC09BE79C46C1F80CC097E7F8
:10686C00002B95D0D1F804C0013BDCF80CC00B60B8
:10687C00C1F804C0CCF808408AE700234B608B6059
:10688C000B6085E7002B83D0D1F808C0013BDCF806
:10689C0008C00B60C1F808C0CCF80C5078E7D1F8F0
:1068AC0004C000234B608B600B60C1F80CC06FE719
:1068BC0008F101085462C2F828A0CAF80860C0F8B0
:1068CC000080466088E700BF800100202DE9F0457C
:1068DC00044672B6614B6248196804F11C07013119
:1068EC001960C368C368002B64D0D0F80080B8F17D
:1068FC00000F1FD0D0F804A004F12006DAF8041021
:10690C00236A0AF10405994256DD5346D5F800C0B6
:10691C00216A8C4569DC8368DF6063620023A362B3
:10692C0003688760013303604E4B18687AB9A26024
:10693C00BDE8F0850123C4F82480C4F828800360E6
:10694C0047608760474B18680AB9F0E7013212F0CC
:10695C00030FFBD1456804320F2A98BF10222B4637
:10696C00002D76D0696802F1100C8C4507D9914244
:10697C0005D0DB68002B6CD059686145F7D3891AB8
:10698C005960C168891AC160596871B90668012ECD
:10699C0036D09F68002F42D0DD68002D4BD0FD60B3
:1069AC00D968013E06608F6059681B6858185A50A8
:1069BC00021DBCE7C760C5E7DAF80C30002BA4D089
:1069CC00D3F804C031681D1D8C459FDCD9680029A3
:1069DC009CD00B46D3F804C031681D1D8C45F5DDE9
:1069EC00D5F800C0216A8C4595DD996869B108F12C
:1069FC000108CF609F60A3626162C0F80080A1E7CC
:106A0C000160416081605968CFE7036861620133BE
:106A1C00C4F828A0CAF808700360476092E7002EFB
:106A2C00C3D0D5F80CC0013E0660C0F804C0CCF849
:106A3C0008105968B9E7002EB7D0D0F808C0013E4D
:106A4C00DCF808C00660C0F808C0CCF80C10596817
:106A5C00ABE7FEF761FC002269E700BF9001002064
:106A6C00800100204C000020F0B572B63D4BDA6876
:106A7C00DA681068DA681A68002A3DD059686FF035
:106A8C00004CD1F804E0E64536D0012AD3F80CE0EE
:106A9C0055D0D1F80CC00024013AC3F804C01A60D8
:106AAC00CCF808401E682F4AD960002E2AD05768AF
:106ABC000EF104057A68DEF804103C1D914243DBAC
:106ACC00FA68002A40D0D2F804C02968141D8C45FD
:106ADC0023DDD4F800C0DEF804108C4522DC9A6863
:106AEC00C2F80CE0CEF808200022CEF80C201A6870
:106AFC00C3F808E001321A60DB6801221968FFF75D
:106B0C000BFEF0BD0121CEF80860CEF80C601160D0
:106B1C00C2F804E0C2F808E0EEE7D1680029D8D04A
:106B2C000A46D0E7916889B10136C1F80CE0C2F889
:106B3C0008E0CEF80C20CEF808101E60DCE700222E
:106B4C005A609A601A60ADE73A46C2E71A68CEF806
:106B5C0008100132CEF80C70C7F808E01A60C3F8C0
:106B6C0004E0C9E78001002030B5114D114C2A68B2
:106B7C002368012B06D962B630BF002AF8D0FFF784
:106B8C0073FFF4E772B60C4C0C48FEF76DFB0A254C
:106B9C000B48FEF769FB25600A48FEF765FB0848C1
:106BAC00FEF762FB256002F085F930BF002030BD96
:106BBC0080010020900100202C000020A0982000D3
:106BCC0054962000BC982000344BF0B5DA681C6851
:106BDC001068DA682CB9DB6801221968FFF79CFD94
:106BEC00F0BDD3F80CE05F680EF104067A68DEF8AD
:106BFC0004103D1D914243DBFA68002A40D0D2F8C4
:106C0C0004C03168151D8C451FDDD5F800C0DEF8B9
:106C1C0004108C451EDC9A681C68C2F80CE0CEF897
:106C2C00082001340022CEF80C201C60C3F808E0C8
:106C3C004CB1012C1BD05C680021E2685A60916059
:106C4C001A68013A1A60DC60C5E7D1680029DCD00B
:106C5C000A46D4E79168A9B10134C1F80CE0C2F836
:106C6C0008E0CEF80C20CEF808101C60E0E70022FB
:106C7C005C689A605A601A68DC60013A1A60AAE78C
:106C8C003A46C2E71C68CEF808100134CEF80C70F6
:106C9C00C7F808E01C60C3F804E0C9E780010020D5
:106CAC0000B572B6FFF790FF00BD00BF2DE9F04FA5
:106CBC00434D0446EB680368002B74D000264FF05C
:106CCC0001082F46012B40D06268013BD16823603C
:106CDC0061608E601268C2F81080EB68EB685661D8
:106CEC0002F11C0C002B26D0D7F800A0BAF1000F33
:106CFC0030D0D7F8049002F1200ED9F80410136AA2
:106D0C0009F1040099422EDD4B460068116A884255
:106D1C003CDCAB68C3F80CC053622B689662013341
:106D2C00C5F808C02B60FFF74FFF72B62368002B25
:106D3C00C8D1BDE8F08FC7F80CC0FFF745FF72B69D
:106D4C002368002BF5D0012BBED16268A66066606B
:106D5C002660BFE756629662C7F80080C7F804C089
:106D6C00C7F808C0E9E7D9F80C3023B9CCE7D968E3
:106D7C000029CAD00B46D3F804B0DEF80010181D59
:106D8C008B45F4DD0068116A8842C2DD996861B1F7
:106D9C000AF1010AC1F80CC0C3F808C09362516231
:106DAC00C5F800A0C9E762B6C3E72B68516201338E
:106DBC00C2F82890C9F808C02B60C5F804C0BCE71D
:106DCC0080010020C368036910B5012B18D003693A
:106DDC00B3B12C4BDA68D96800F11C0291421CD07B
:106DEC001A68012A29D0416A002935D0846A002CFE
:106DFC003FD0CC60D0F828C0013ACCF808101A600B
:106E0C000369012B01D062B610BD026A6FF000431A
:106E1C009A42F8D0FFF7D8FEF6E71A68CAB1012AF1
:106E2C0010D059680024D1F80CC0013AC3F804C042
:106E3C001A60CCF80840D960E2E700225A609A60E8
:106E4C001A60DDE7596800225A609A601A60D960AE
:106E5C00D6E71146D960D3E7002AD1D0D3F804C0C5
:106E6C00013ADCF80CC01A60C3F804C0CCF8081066
:106E7C00C6E7002AC4D09968013A89681A609960FB
:106E8C00CC60BDE7800100203A4BF0B5DA680268AF
:106E9C00002A37D0012A43D041684FF0000ED1F8B8
:106EAC000CC0013AC0F804C00260CCF808E00968D4
:106EBC0001200861D3F80CC0DD6800224A6101F1A1
:106ECC001C042C4A002D1FD01668002E20D05768A9
:106EDC0001F120057A68086A07F1040E904225DA60
:106EEC003A46DEF800C0086A84452EDC9A68D46005
:106EFC004A6200228A621A689C6001321A60FFF7AB
:106F0C0063FE00E062B6F0BDD460FFF75DFEFAE709
:106F1C004E628E62106054609460FFF755FEF2E78B
:106F2C0000224168826042600260C0E7FA6822B9C0
:106F3C00D6E7D0680028D4D00246D2F804C028681E
:106F4C0002F1040E8445F4DDCBE7906840B10136C4
:106F5C00C46094608A6248621E60FFF735FED2E717
:106F6C001A68486201328F62BC601A605C60FFF77D
:106F7C002BFEC8E7800100202DE9F04172B69E4B34
:106F8C00DA68DA68D9681268D3F80CC002F11C010F
:106F9C008C4500F09E801968012900F0DF80546A4E
:106FAC00002C00F0AE80956A002D00F0EA80E560C0
:106FBC00D2F828C00139CCF80840196091680860F3
:106FCC00042111618D490868013808609169002914
:106FDC0000F09180916901240C61D2F818C0D86836
:106FEC00D86885490CF11C0570B30F68002F00F0B0
:106FFC00A180D1F804800CF12006D8F80410DCF83C
:10700C00200008F104048842C0F2DD80D8F80C108E
:10701C00002900F0D880D1F804E030680C1D8645BA
:10702C007DDDD4F800E0DCF82000864500F38A8092
:10703C0099681C68CD60CCF8241001340021CCF880
:10704C0028101C609D6001E00C68CD6000219161EE
:10705C006949D8683CB9DB68104619680122FFF70A
:10706C005BFBBDE8F081D1F80CE04F680EF1040633
:10707C007868DEF804103D1D884200F3A280F968A0
:10708C00002900F09E80D1F804C030680D1D8445A5
:10709C004BDDD5F800C0DEF80400844563DC99684C
:1070AC001C68C1F80CE0CEF8081001340021CEF8B1
:1070BC000C101C60C3F808E04CB1012C6FD05C685C
:1070CC000020E16859608860196801391960DC603A
:1070DC00C1E7196889B101296AD0D3F804C000242A
:1070EC00DCF80CE00139C3F804E01960CEF8084074
:1070FC00C3F80CC062E71C68AAE78C46C3F80CC046
:10710C005CE700293FF45AAFD3F804C00139DCF82E
:10711C000CC01960C3F804C0CCF808404EE7C8682E
:10712C0000283FF47EAF014675E7C8680028B0D050
:10713C000146A8E7CCF82470CCF828700C604D60A0
:10714C008D6083E7886800283FD07C1CC5608D600B
:10715C00CCF82810CCF824001C6077E7002159608B
:10716C00996019602AE78868002839D00134C0F882
:10717C000CE0C1F808E0CEF80C10CEF808001C604A
:10718C009AE700293FF41AAFD3F808C00139DCF8AC
:10719C0008C01960C3F808C0CCF80C500EE70021E9
:1071AC005C68996059601968DC600139196052E7B4
:1071BC00D3F804C00021596099601960C3F80CC061
:1071CC00FCE6394665E741462BE71C68CCF8240001
:1071DC000134CCF82880C8F808501C605D6035E795
:1071EC001C68CEF808000134CEF80C70C7F808E023
:1071FC001C60C3F804E05FE78001002090010020D0
:10720C00704700BF143070470B7803754B7843758B
:10721C000A7848F2D053C4F208031A604A7848F24C
:10722C00D453C4F208031A60704700BF1C30704777
:10723C00014B0360704700BF3C982000C369426A51
:10724C000133C361D1F8C830D31843620023C1F8AD
:10725C00C83081F8BC3070470023C36103624362BD
:10726C008362C362036343638363C363704700BF7A
:10727C002DE9F04F88B0079072B648F61008C4F2AA
:10728C0008081123DFF80093C8F80030D9F8002063
:10729C0048F6140748F61806C4F20807C4F20806A4
:1072AC003868140232680023120248F6240513EBE6
:1072BC00020AC4F2080544F1000B48F6200C1AEB44
:1072CC0000012868C4F2080C4BF100024FEA004A96
:1072DC004FEA104BDCF8000011EB0A014FEA006A90
:1072EC0042EB0B0211EB0A014FEA102B42EB0B02A3
:1072FC000191029201A903C948F61C02C4F20802CA
:10730C0000921268C8F80030D9F800803F683668DF
:10731C00C01841EB0201059732022D689E18059AA0
:10732C00DCF800C04FEA082B4BF100074FEA054A86
:10733C00B61847F100074FEA154B16EB0A064FEA51
:10734C000C6A47EB0B0716EB0A06DDF800A04FEAB8
:10735C001C2B47EB0B0701900291F618DAF8000092
:10736C009A46D9F8003047EB00079845834605D07C
:10737C0000234FF48074F61847EB040702988742F9
:10738C000BD800F09780002301AFC0CF6FF0FF0443
:10739C00F61847EB0407019602977C4B93E8030021
:1073AC000390049162B648F6340CC4F2080C48F60B
:1073BC003000DCF80060C4F2080048F62C030768C3
:1073CC00C4F208031D6806F04008CCF8008007F0F2
:1073DC00020CC0F800C015F00C0F05F0300018605E
:1073EC0059D116F0040F6AD048F27C63C4F208033A
:1073FC00186848F27863C4F20803D3F800C048F266
:10740C000003C0EB0C05C4F20803032D53F82060F5
:10741C0041D9F6B2301884453DD953F8203013F0D9
:10742C00800F38D0079A01AC18CC059306944CF613
:10743C00CD48D2F894004FF0140C4FF0010ACCF662
:10744C00CC48174600F1100357F8235005F1BC0245
:10745C00D2E84F6FC2E843AF002BF9D1F6B2002E41
:10746C0034D0421CA8FB0210000900EB8000800005
:10747C004CF6CD43101A1CF1FF3CCCF6CC43E1D1B9
:10748C000130A3FB00431B0903EB83039B00079E06
:10749C00C01AC6F8940048F63803C4F20803ED226B
:1074AC001A604EF20413CEF2000302221A6008B0E6
:1074BC00BDE8F08F01998E423FF66FAF63E74EF255
:1074CC000413CEF2000302221A60F0E705AB0CCBDA
:1074DC00019202934CF6CD430130CCF6CC43A3FB86
:1074EC0000431B0903EB83039B00079FC01AC7F8DB
:1074FC009400002DCFD048F27C63C4F208031868C6
:10750C0048F20003C4F2080353F820707FB148F22C
:10751C0004038000C4F20803C31801A903C953F87B
:10752C00042BAA550136B742F9D80190029148F6BE
:10753C003803ED20C4F208031860C5F8C870EF19C1
:10754C0017F8023CC5F8803001A903C903AC18CC6C
:10755C001B1844EB0104C5F88430C5F888404EF282
:10756C000413CEF20003022207991A600B682978E3
:10757C009B6801F0070107982A469847002896D186
:10758C0085F8BC0093E700BFC4010020C8010020AF
:10759C000C4B0268596800B58A420CD099688A4233
:1075AC0009D00948FDF760FE0848FDF75DFE084B61
:1075BC000A221A6000BD18680028F2D0FFF758FEA6
:1075CC00F8E700BFDC01002044992000549620000D
:1075DC002C000020024B00B5036001F04BFF00BDF6
:1075EC003C9820002DE9F041984603680546DB6A7B
:1075FC000F4614469847584B186843683BB15A6875
:10760C00EF2A08D8E02A06D0DB68002BF7D1FDF76B
:10761C0083FE00261FE0E03A5A60C268E03AC2607E
:10762C005A689AB90668012E77D09968002979D0E2
:10763C00D3F80CC0BCF1000F00F08380C1F80CC073
:10764C00DA6891600268013A02605A681B68E021AE
:10765C009E189950043649F641033380002386F86E
:10766C00BC30C6F8C070069A0799093252180899AE
:10767C00C6F8CC605218C6F8C820C6F8D030C6F888
:10768C00D460C6F8D8302B682846DB6A984798F83F
:10769C000030324A43F4184343F0400333801168FE
:1076AC0044F66D63C4F2C61301FB03F303F54053B8
:1076BC003933B3F1FF3F28BF01331360B3704FF080
:1076CC00FF33F3703371022205462146701D01F021
:1076DC004FFFF01D0222294601F04AFF2378FF2BB1
:1076EC002DD16178FF2914BF20210021328822F08E
:1076FC0020031B041B0C0B4333802278FF2A1CD164
:10770C006278FF2A14BF2022002223F0200342EAD1
:10771C00030333803046BDE8F08142608260026032
:10772C005A6893E7002E91D04168C96841608A601D
:10773C000268013A02605A6888E72022E5E72021B6
:10774C00D4E7002E82D0816889688160CA600268A3
:10775C00013A02605A6879E74C000020580000207A
:10776C002DE9F04105464CF6CD48D5F890C01846A9
:10777C004FF00107CCF6CC480CF1100355F8234020
:10778C0004F1BC06D6E84FEFC6E8437F002BF9D1D5
:10779C001EF0FF0F06D1D4F8C83093B9D5F890C0BD
:1077AC0084F8BC300CF10103A8FB03EC4FEA1C1C61
:1077BC000CEB8C0C4FEA8C0CCCEB030CC5F890C08A
:1077CC00DAE74CF6CD430CF1010CCCF6CC43A3FB21
:1077DC000CE31B0903EB83039B00C3EB0C0CC5F8F8
:1077EC0090C0D4F8C860069B093EB34238BF1E4611
:1077FC00E3790B70237A4B70214631F8093B03F087
:10780C0007031370324601F0B3FE2B6828469B6ABF
:10781C00214698473046BDE8F08100BF2DE9F04580
:10782C009846036883B00446DDF828A0DB6A0F464F
:10783C00164698470021236800910191CDF808A0C5
:10784C001D6A3A4633462046A847414605465246ED
:10785C0000F1090001F08CFE236820465B6A294682
:10786C00984703B0BDE8F085F0B58AB000293CD04C
:10787C00012908BF046835D011F0010F3BD1013943
:10788C004B08056833D0012B05FB05F428D013F009
:10789C00010F52D1013B5A087DD0012A04FB04F69A
:1078AC001CD012F0010F7AD1013A520800F0A580D9
:1078BC00012A06FB06F70FD012F0010F40F0AB8047
:1078CC0007FB07F30AA8013A40F8283D510868461F
:1078DC00FFF7CAFF00FB07F707FB06F606FB04F4ED
:1078EC0005FB04F420460AB0F0BD0124FAE701249C
:1078FC0005FB04F4F6E74B080468F6D0012B04FBF7
:10790C0004F4EFD013F0010F31D1013B5A082AD007
:10791C00012A04FB04F5E3D012F0010F55D105FB4D
:10792C0005F30AA8013A40F8103D5108FFF79CFFF7
:10793C0000FB05F505FB04F4D4E78B08012B04FBD5
:10794C0004F4CDD013F0010F4BD104FB04F20AA8C0
:10795C00013B40F8182D5908FFF786FF00FB04F493
:10796C0005FB04F4BEE7012505FB04F4BAE78B081C
:10797C00012B04FB04F4B5D013F0010F41D104FB2F
:10798C0004F20AA8013B40F8082D5908FFF76CFFD8
:10799C0000FB04F4A6E7012606FB04F4A0E79B0811
:1079AC00012B06FB06F699D013F0010F3FD106FB15
:1079BC0006F20AA8013B40F8202D5908FFF754FFA6
:1079CC0000FB06F606FB04F48AE705FB05F50AA89E
:1079DC0040F80C5D9908FFF747FF054605FB04F4DA
:1079EC0080E704FB04F40AA840F8144DC908FFF71B
:1079FC003BFF044605FB04F474E7012707FB06F67E
:107A0C006CE704FB04F40AA840F8044DC908FFF71E
:107A1C002BFF044666E707FB07F70AA840F8247D0E
:107A2C005108FFF721FF074607FB06F656E706FB52
:107A3C0006F60AA840F81C6D5908FFF715FF064614
:107A4C0006FB04F44CE700BF42F2A802C4F20D029C
:107A5C0013682DE9F04F43F00103136042F2AC02BE
:107A6C00C4F20D021368FEB043F00103136042F23E
:107A7C00B002C4F20D021368629043F0010313606C
:107A8C0048F22462C4F208021368088843F00C031D
:107A9C00136048F63803EE22C4F2080367901A60AC
:107AAC00D1F8C80048F270625F91C4F20802136802
:107ABC00002BFCD148F62801C4F2080108600238FA
:107ACC0007D0DDF87CC11CF80320013383420A6027
:107ADC00F9D304237EA840F8043D0121FFF7C4FE2E
:107AEC0040F25801C2F200010968002244F66D6BA5
:107AFC0058904A9158464F9248F6100148F6140295
:107B0C000323C4F2C610C4F20801C4F208020DF536
:107B1C00C67B619360902691279206A903C948F60B
:107B2C0018030290039124AA06CA8BE860008DE822
:107B3C000600C4F2080348F624090DF5CA7CDFF8E8
:107B4C00E04ADFF8E0AA8CE88001C4F208091F467D
:107B5C004A9B609A589D02FB03F101F5405339335F
:107B6C00B3F1FF3F28BF0133B3FBF5F105FB113136
:107B7C004A9301EB81039A01B2F5A07F80F00B864A
:107B8C004FF4205B4FF0000CCDF8BCB0CDF8C0C06A
:107B9C0072B6269900220A60D4F80080279D4FEA1D
:107BAC000823D5F800E040933B683F921902D9F8BE
:107BBC0000C03FAB0CCB551843F1000615EB0E0281
:107BCC0046F100034FEA1C464FEA0C4CCDF840C17D
:107BDC0048F6200CC4F2080CDCF800E0519650A9D1
:107BEC0048F61C0C03C900254FEA1E261218C4F2D5
:107BFC00080C4FEA0E6E43EB0103DCF800C0539601
:107C0C00CDF848E152A903C9121843EB0103CDF892
:107C1C0070C15B955BA9D4F800C003C9121843EB83
:107C2C000103E04507D04FF0000B4FF4807C12EBC2
:107C3C000B0243EB0C0362B62FA903C99AE8600050
:107C4C00401941EB0601801841EB0301249025916A
:107C5C0002AA06CA2F91309248F6200848F61C0E4C
:107C6C00C4F20808C4F2080EBB4672B6269A00236A
:107C7C0013602568279F2E023F6804951D46DBF88C
:107C8C00003045971B02E81846F10001C219D9F8DB
:107C9C00000041F10003010C00041791169016A985
:107CAC0003C91218D8F8000043EB0103DEF800C03A
:107CBC00070A00060997089008A903C9CDF874C0F3
:107CCC0012181C9543EB01031CA903C9121843EBB2
:107CDC00010320680499814205D000204FF4807183
:107CEC00121843EB010362B69AE803008018259A38
:107CFC0041EB0301914203D8B7D1249B9842B4D9EC
:107D0C002FA903C98DE86000029003915F4672B6FB
:107D1C00269900220A60D4F80080279D4FEA082398
:107D2C00D5F800C03E93DBF800303D921B023DA914
:107D3C0003C9C51841F1000615EB0C02D9F800C0B7
:107D4C0046F100034FEA1C464FEA0C4CCDF850C1EB
:107D5C0048F6200CC4F2080CDCF800E0559654A947
:107D6C0048F61C0C03C94FEA1E261218C4F2080C64
:107D7C004FEA0E6E43EB0103DCF800C05796CDF8CA
:107D8C0058E156A903C90025121843EB0103CDF89D
:107D9C0078C15D955DA9D4F800C003C9121843EBF6
:107DAC000103E04507D04FF0000B4FF4807C12EB41
:107DBC000B0243EB0C0362B64FF4205B9AE86000B5
:107DCC004FF0000C15EB0B0546EB0C06AD1848F20A
:107DDC00646246EB0306C4F208022495259602A9B8
:107DEC0003C99DE86000136813F0010FFBD048F243
:107DFC004C63C4F208031A688DE86000029003918A
:107E0C0048F61C06C2F3001248F6200BC4F2080612
:107E1C004592C4F2080B2F9672B6DDF898804FF09D
:107E2C00000C279AC8F800C0D4F800C0D2F800E0C3
:107E3C003B6800201B02C5184FEA0C2141F10006DB
:107E4C0015EB0E02D9F800E046F100034FEA1E488C
:107E5C004FEA0E4ECDF82C80CDF828E00AAE60CE5D
:107E6C005219DBF800E043EB06032F9E1E90D6F868
:107E7C0000804FEA1E264FEA0E6ECDF830E00D96CC
:107E8C000CAE60CECDF87C805219D4F800E043EBF8
:107E9C0006031EAE60CE521943EB0603F44505D023
:107EAC0000254FF48076521943EB060362B69AE82C
:107EBC006000AD18259A46EB030696420695079688
:107ECC0040F2B283029003914598002800F0BE83E3
:107EDC0048F234638022C4F208031A6048F638036F
:107EEC00C4F20803EA221A6048F24C63C4F2080395
:107EFC001B6813F0080F00F0A98365AA4A9B92E84F
:107F0C00800140F2580B4F9A6798C2F2000B63A99C
:107F1C00CBF80030022A8CBF0023012310F0200F75
:107F2C0091E8600000F0B883002B40F0E08448F644
:107F3C00240C60463D953E9601217CAA48F6140B14
:107F4C0048F61809C4F208003F914592C4F2080B98
:107F5C00C4F20809169042F2A802C4F20D0213688A
:107F6C00012143F00103136042F2AC02C4F20D0292
:107F7C001368459843F00103136042F2B002C4F257
:107F8C000D02136844F66D6543F00103136048F26B
:107F9C002462C4F208021368C4F2C61543F00C0341
:107FAC00136004237C93FFF75FFC40F25801C2F28C
:107FBC000001096827900022032348F610001E9147
:107FCC00269224932F95C4F208001E992F9E279A6F
:107FDC0006FB01F303F540533933B3F1FF3F28BFE0
:107FEC0001331E931E9DB3FBF2F302FB135303EB01
:107FFC0083034FEA831CBCF5A07F80F059844FF4B7
:10800C00205100220A910B9272B600260660D4F819
:10801C0000E02D964FEA0E2CCDF8B8C0DBF800C06E
:10802C00D9F800302DAA06CA1B02CD1842F1000661
:10803C0015EB0C0146F100020C910D92169A116889
:10804C000D0C0904319132950CAA06CA31AE60CEE2
:10805C00491942EB06020C910D920CAE60CE48F61B
:10806C002001C4F20801D1F800C048F61C014FEA07
:10807C001C224FEA0C6CC4F208013492CDF8CCC02F
:10808C0033AB0CCB0968AD1846EB030600233A91D1
:10809C00399339AA06CA6D18216846EB02068E453B
:1080AC000C950D9607D00022AD184FF4807346EB5B
:1080BC0003060C950D9662B69AE806000AAE60CEE1
:1080CC006D1846EB02060CAA06CA6D1846EB0206A2
:1080DC0048F61C0348F6200208950996C4F20802DB
:1080EC00C4F208030A920C9372B60025056021684D
:1080FC00DBF800C0D9F800300E021B022F46ED1839
:10810C00B04646F1000615EB0C0246F10003169E34
:10811C001897D6F800C04FEA1C454FEA0C4CCDF826
:10812C0038C00F950EAE60CE521943EB06030A9E73
:10813C000C9DD6F800C0D5F800E04FEA1C254FEA9C
:10814C000C6CCDF840C0119510AE60CECDF864E04B
:10815C005219D4F800C043EB060318AE60CE521986
:10816C0043EB0603614505D000254FF48076521988
:10817C0043EB060362B69AE860000999AD1846EB2A
:10818C0003068E420695079603D8ADD1089A954200
:10819C00AAD972B600230360D4F800E02B93DBF865
:1081AC0000C0D9F800304FEA0E252C951B022BAAE3
:1081BC0006CACD1842F1000615EB0C0146F100027F
:1081CC000A910B92169A11680D0C0904359136958B
:1081DC000AAA06CA35AE60CE491942EB06020A91CC
:1081EC000B920AAE60CE48F62001C4F20801D1F819
:1081FC0000C048F61C014FEA1C224FEA0C6CC4F27A
:10820C0008013892CDF8DCC037AB0CCB0968AD183F
:10821C0046EB030600233C913B933BAA06CA6D1820
:10822C00216846EB02068E450A950B9607D0002274
:10823C00AD184FF4807346EB03060A950B9662B6A5
:10824C004FF4205500269AE80600491942EB060225
:10825C000AAE60CE491942EB0602089109923DAE76
:10826C0060CE48F26462C4F20802136813F0010F86
:10827C00FBD048F24C63C4F208031A6848F61C0C95
:10828C00C2F300121C924BAA3D953E96614648F6ED
:10829C00200682E88001C4F20806C4F208010A969E
:1082AC000C914A9072B64A9B00251D602668DBF83B
:1082BC0000C0D9F8003016991B023D963602EF1813
:1082CC0046F1000817EB0C02D1F800C048F100038E
:1082DC004FEA1C484FEA0C4CCDF848C0CDF84C8006
:1082EC0012A903C9121843EB01030A990C9FD1F888
:1082FC0000C0D7F800E04FEA1C204FEA0C6CCDF818
:10830C0050C0159014A903C9CDF86CE012181A9539
:10831C0043EB01031AA903C9121843EB0103D4F868
:10832C0000C03D99614505D000204FF480711218B2
:10833C0043EB010362B69AE88001BF18099A48EB37
:10834C000308904540F253823D953E961C9E4BADE2
:10835C0095E880014A98002E00F05C8248F2346364
:10836C008022C4F208031A6048F63803C4F20803EA
:10837C00EA221A6048F24C63C4F208031B6813F03B
:10838C00080F00F0478226981E9D40F25806C2F254
:10839C0000060228356000F2528242F2A802C4F2B2
:1083AC000D0213685F9943F00103136042F2AC02B3
:1083BC00C4F20D02136848F6300043F00103136059
:1083CC0042F2B002C4F20D02136848F62C0C43F0D2
:1083DC000103136048F22462C4F208021368C4F269
:1083EC00080023F00C03136048F28C62C4F20802FC
:1083FC001368C4F2080C23F004031360136843F0F1
:10840C00040313601368897823F00403136048F69F
:10841C003402C4F2080213681E9123F004031360A3
:10842C0048F20463C4F208031A68269220221A60E8
:10843C000368C3F340031BB1026822F0020202601E
:10844C00DCF8002012F0300F0CBF002201222AB100
:10845C00DCF8001021F03001CCF800100BB9002A28
:10846C00E6D072B648F610020023C4F2080213607C
:10847C00D4F800E0DBF800C0D9F800204FEA0E2554
:10848C0047954693120246A903C9851841F1000687
:10849C0015EB0C00169D46F100012A684893160C4A
:1084AC001204419248F62002C4F20802D2F800C02D
:1084BC0048F61C024296C4F2080241AE60CE126825
:1084CC0040194FEA1C254FEA0C6C41EB0601449510
:1084DC00CDF80CC143AE60CE4992401948AB0CCBE1
:1084EC0041EB0601801841EB030123689E4505D042
:1084FC0000224FF48073801841EB030162B64FF4F5
:10850C00B0429AE860000023AD1846EB03062D1824
:10851C0046EB010648F61C0C08950996604648F691
:10852C00100648F27C612497CDF89480C4F20806BA
:10853C00C4F2080048F6340EC4F208010A960C90F6
:10854C00C4F2080E1C9172B60A9F4FF00008C7F8CF
:10855C000080D4F800C0DBF80050D9F800304FEAA6
:10856C000C211B0218EB030641F10007721947F1AD
:10857C000003169F40463D6829902E0C2D04219631
:10858C00209520AE60CE521948F62005C4F208059D
:10859C0043EB06032D680C9ED6F800802E0A2D06A0
:1085AC002396229522AE60CECDF8A880521943EBCB
:1085BC00060329AE60CE5219256843EB0603AC4581
:1085CC0005D000264FF48077921943EB070362B66F
:1085DC009AE86000099FAD1846EB0306B74240F2DB
:1085EC006E81DEF8003013F0040FACD01C9D1E9E83
:1085FC002B689A0048F20C03C4F20803D3181B68CA
:10860C00B34200F0D28048F63803C4F20803ED22DE
:10861C001A60DEF8003023F00403CEF8003092E745
:10862C00C4010020C801002003D1249B9D423FF6C9
:10863C0049AC459D45B148F24C66C4F20806336816
:10864C0013F0100F7FF4E8AB0290039161980428AB
:10865C0005D86198589901304900619058914F9A0A
:10866C000132032A4F927FF473AA4A9840F25801C0
:10867C00C2F2000108604F9A679863AB93E8600000
:10868C000DF5CA7B022A8CBF0023012310F0200FAA
:10869C009BE880017FF448AC0BB348F6300148F6F8
:1086AC002C02C4F20801C4F208020868C0F34000AE
:1086BC0028B1D1F800C02CF0020CC1F800C0D2F8DF
:1086CC0000C01CF0300F0CBF002401242CB1D2F8D8
:1086DC0000C02CF0300CC2F800C0002862D042F26E
:1086EC00A802C4F20D0211685F9E41F001011160F5
:1086FC0042F2AC02C4F20D021168304641F00101A5
:10870C00116042F2B002C4F20D021168059341F0FF
:10871C000101116048F22462C4F208021168D6F813
:10872C00C85021F00C01116048F28C62C4F20802AE
:10873C00116821F004011160116841F0040111600D
:10874C0000F098FE059B002B43D11C46DFF86C54BF
:10875C00DFF86C046CAFFCF787FD5F993A4628464E
:10876C00FCF730FE0DF5FC7808EB0003002203F853
:10877C00482C3846FCF778FDDFF84804FCF774FD0C
:10878C00DFF84404FCF770FDDFF84004FCF76CFDE7
:10879C000A232B6027E02023A2FB03012F903091AA
:1087AC00FFF7F6B9002C80D099E7269D48F20463B8
:1087BC00C4F208031D6048F28C63C4F208031A6803
:1087CC005F9E42F004021A603046D6F8C85000F0A2
:1087DC0051FE2C46002DB9D0629F3B6A01333B629F
:1087EC00BB6A5B19BB6220467EB0BDE8F08F03D13B
:1087FC00089887423FF6A8AD1C9941B148F24C62EB
:10880C00C4F20802136813F0100F7FF44BAD3D95C2
:10881C003E964A98249A042A05D82499279A01311D
:10882C00520024912792269B0133032B26937FF42D
:10883C00CCAB1E9B40F25805C2F200052B60002306
:10884C003F9E0136042E3F967FF485AB5BBB42F214
:10885C00A803C4F20D031A6842F001021A6042F236
:10886C00AC03C4F20D031A6842F001021A6042F222
:10887C00B003C4F20D031A6842F001021A6048F208
:10888C002463C4F208031A6822F00C021A6048F23E
:10889C008C63C4F208031A6822F004021A601A6886
:1088AC0042F004021A605F9800F0E4FD00244DE7EA
:1088BC002023ACFB03560A950B96FFF7A5BB03D1FF
:1088CC00089AAA423FF68DAE68AB83E80300269D5A
:1088DC0048F20463C4F2080348F28C621D60C4F2CF
:1088EC000802136843F0040313600123A8E742F263
:1088FC00A802C4F20D02136848F6300043F00103DD
:10890C00136042F2AC02C4F20D02136848F62C0C50
:10891C0043F00103136042F2B002C4F20D0213687B
:10892C00C4F2080043F00103136048F22462C4F25D
:10893C0008021368C4F2080C23F00C03136048F20D
:10894C008C62C4F20802136823F0040313601368EA
:10895C0043F0040313605F9B9B781E93136823F012
:10896C000403136048F63402C4F20802136823F0BF
:10897C000403136048F20463C4F20803D3F800B094
:10898C002022CDF898B01A600368C3F340031BB1E2
:10899C00026822F002020260DCF8002012F0300FB4
:1089AC000CBF002201222AB1DCF8001021F03001AA
:1089BC00CCF800100BB9002AE6D072B648F61003BA
:1089CC000021C4F20803196048F61403C4F208032A
:1089DC00D4F800E0186848F61803C4F208031B68C2
:1089EC004FEA0E2C4FEA032911EB09024CF100035C
:1089FC0012EB000B43F1000C48F62403C4F20803FD
:108A0C0018680204030C1BEB020B4CEB030C48F62E
:108A1C002003C4F20803186848F61C03C4F20803C8
:108A2C000206D3F80090030A1BEB020B4CEB030C71
:108A3C0023681BEB010B4CEB090C9E4506D0002266
:108A4C004FF480731BEB020B4CEB030C62B64FF430
:108A5C00B04200239AE80300801841EB030110EBAD
:108A6C000B0041EB0C0148F27C6C1690179148F608
:108A7C00240248F6180148F61C03604627952896F0
:108A8C002497CDF8948048F6100948F6140BC4F2DC
:108A9C000801C4F20802C4F2080348F6340EC4F20A
:108AAC000800C4F20809C4F2080B08910A920C934E
:108ABC00C4F2080E1C9072B60027DDF82080C9F8AD
:108ACC000070D4F800C0DBF80050D8F800304FEA42
:108ADC000C211B02FE18384641F10007721947F1B0
:108AEC0000030A9F4BAE3D680C9F4FEA15482D04BE
:108AFC00CDF830814B9560CE521948F62005C4F262
:108B0C0008052D6843EB06032E0A2D06D7F80080C6
:108B1C004E964D954DAE60CE521943EB0603CDF8F3
:108B2C006881599059AE60CE5219256843EB060303
:108B3C00AC4505D000254FF48076521943EB060363
:108B4C0062B69AE86000179FAD1846EB0306B74271
:108B5C001ED9DEF8003013F0040FACD01C9D1E9E05
:108B6C002B689A0048F20C03C4F20803D3181B6854
:108B7C00B3423FF41AAE48F63803C4F20803ED22B0
:108B8C001A60DEF8003023F00403CEF8003092E7D0
:108B9C0002D1169AAA42DCD848F204632698C4F291
:108BAC00080348F28C621860C4F20802136827AEFE
:108BBC0060CE43F004031360FFF7B9B92C0000201A
:108BCC0070992000A09920008499200054962000D0
:108BDC00704700BF2DE9F04F016840F2C903C0F2A5
:108BEC000403CB1881B09B020093A1F110020099F1
:108BFC0003F5837301F5E37B9B004FEA8B0B164D5A
:108C0C001F68DBF8009080464FEAC20A05EB42155C
:108C1C000024012616FA04F33B4204D103FA0AF3AA
:108C2C0013EA090F05D02B681BB11B690BB1404629
:108C3C00984701340435082CECD1009A02F5827364
:108C4C0003339B004FF0FF321A60DBF80030CBF897
:108C5C00003001B0BDE8F08FE80100202DE9F007ED
:108C6C0090F800C0D2B2BCF11F0F0CF1100800F24A
:108C7C00AB80012505FA0CF54EF28014CEF20004FF
:108C8C0025604EF28024CEF20004256040F2D90417
:108C9C00C0F204046444A40204F58277BD00406869
:108CAC00D5F800A0C6430AEA060AC5F800A0DFF80A
:108CBC005C91DFF85CA109684AF8289004F5807A89
:108CCC000AF101084FEA8808D8F80090012909EA4E
:108CDC000609C8F8009063D002295AD000293CD06C
:108CEC004FEACC0610FA06F60337BF0004F5E37121
:108CFC0038608900D1F80080F74308EA0708C1F80A
:108D0C000080296841EA0000286092B11B68012BA1
:108D1C006DD03BB904F5E07301339B001A6802EA8D
:108D2C0007071F6004F5E274A400236843EA0606F3
:108D3C002660BCF11F0F22D9BCF13F0F0AD80123CA
:108D4C00ACF1200C03FA0CFC4EF20413CEF200032F
:108D5C00C3F800C0BDE8F007704704F581718900C5
:108D6C00D1F800800AF1030A08EA06060E604FEA01
:108D7C008A0ADAF800100143CAF80010B0E70123A0
:108D8C0003FA0CFC4EF20013CEF20003C3F800C041
:108D9C00E0E704F5817189000E6806430E609FE7D9
:108DAC0004F581718900D1F800800AF1030A08EA00
:108DBC000608C1F800804FEA8A0ADAF8001001EAC6
:108DCC000606CAF800608BE7BCF13F0F3FF65EAFBA
:108DDC00ACF120040125A5404EF28414CEF200041F
:108DEC0025604EF28424CEF2000425604EE704F593
:108DFC00E07301339B001A6804F5E27432431A6085
:108E0C00A400236843EA0606266092E7DD8B200067
:108E1C0068020020EFF3038000F03F0001B500F082
:108E2C0035F8BDE801404FF001034FEA03630D49EB
:108E3C0041F001010C4AA2F101020EB42DE90F1010
:108E4C00BFF36F8F704707DFFDE7079800F40070E2
:108E5C004FEAD01000F120008544BFF36F8F7047AC
:108E6C0070470000528E2000798E200000B540F231
:108E7C00682381B001AAC2F2000342F8040D53F832
:108E8C0020306846984701B000BD00BF00B5054BC7
:108E9C0081B053F8203000900BB16846984701B070
:108EAC0000BD00BF64000020704700BF00B500F09B
:108EBC001DF800BD00B549F6901081B0C0F220003D
:108ECC00FCF7D2F949F25460C0F22000FCF7CCF95F
:108EDC0040F22C03C2F200030A221A605C231B68C6
:108EEC000093009B984701B000BD00BF2DE9F041F5
:108EFC0072B61E4D1E4E15F8014C4FF000081D4F5A
:108F0C008CB1092C2AD00A2C1BD033682046013393
:108F1C00336000F04BF833684F2B08DC013515F843
:108F2C00014C002CEDD1FFF7C5FFBDE8F0810D2001
:108F3C0000F03CF80A2000F039F80135C6F8008042
:108F4C00EDE70D2000F032F8204600F02FF83B68DA
:108F5C00C6F8008001333B600135E0E7204600F0A5
:108F6C0025F83368013508333360D8E7A59920001C
:108F7C00A0010020A401002030B50B4C054623684D
:108F8C0023B1DA68013ADA60DA683AB1636823B17E
:108F9C005A682846DA601B69984730BD5A68DA600F
:108FAC001B699847F2E700BF680C00200F4BC0B25A
:108FBC001B78D3B149F23803C4F20803032249F2F7
:108FCC0044011A60C4F208010A6849F2440312F021
:108FDC00010FC4F20803F7D149F29802C4F2080257
:108FEC0010601A6842F001021A607047610000209C
:108FFC004378053B1D2B10D8DFE803F011570F0FFA
:10900C00400F0F0F0F0F0F0F0F0F0F0F0F0F0F0F33
:10901C000F0F0F0F0F0F0F20226D002070470378DA
:10902C00002BFAD18378C27843EA022249F200037A
:10903C00C4F208031A60364B03221A600120EDE7D4
:10904C000378A12BE9D18378C27853EA0222E4D1C8
:10905C00304B19681A715A7162F31F0108229A7108
:10906C002D4A196013608379C279012043EA0222E8
:10907C002A4B072A28BF07221A60CFE70378002B58
:10908C00CBD10379427953EA0222C6D18379C279D2
:10909C0053EA0222C1D18378C07843EA0020012828
:1090AC00BBD11B4B04221A60B8E70378802BB4D1D8
:1090BC00C378012B1ED0022BAFD1194A164B1A6064
:1090CC008379C279012043EA0222144B432A28BF38
:1090DC0043221A60A2E70378212B9ED18379C279AF
:1090EC0053EA022299D182780E4B02F001021A70D7
:1090FC00012093E70C49084A11608279C17918461E
:10910C0042EA0121054A122928BF1221116085E784
:10911C005C000020800C00207C0C0020880C0020BF
:10912C00DC972000600000202098200070B549F2E8
:10913C003803634AC4F208031C68136882B023B175
:10914C00002113F0040F11606ED15E4A136823B135
:10915C00002113F0010F11600BD15B4B1A680AB19F
:10916C0000221A6049F23803C4F208031C6002B0F2
:10917C0070BD564B1A7812BB554A1278FAB10122BF
:10918C001A701B78DBB149F23803C4F208030322CE
:10919C0049F244011A60C4F208010A6849F2440316
:1091AC0012F0010FC4F20803F7D149F29802C4F28D
:1091BC000802202111601A6842F001021A6049F27B
:1091CC003803C4F2080300221A6049F24403C4F2C3
:1091DC0008031B6813F0010F31D049F25803C4F295
:1091EC0008031B6849F28001DBB26846C4F208012F
:1091FC00934206D9D1F800C000F802C00132082A07
:10920C00F6D16846FFF7F4FE88B1DFF8C8C0DCF889
:10921C000030002B4AD049F24403C4F208031A6808
:10922C0042F040021A6010E0FCF764FA8DE749F254
:10923C004403C4F208031A6842F060021A60DFF8B3
:10924C0094C0DCF80030002B87D0234E3268C2B1BA
:10925C0049F28005DCF800100023C4F20805C85C54
:10926C000133013A2860C818CCF80000101E18BF52
:10927C0001201F2B8CBF002000F001003260002861
:10928C00EDD152B949F24403C4F208031968CCF881
:10929C00002041F00A0119605FE749F24403C4F26F
:1092AC0008031A6842F002021A6056E749F24403B6
:1092BC00C4F208031A6842F048021A604DE700BF76
:1092CC00700C0020740C0020780C00206100002031
:1092DC00600000207C0C0020880C00204F4B70B4E8
:1092EC001D6847F2F833C2F200034FF440625A6033
:1092FC0000229A60DA60EA681B6002F54062EA605C
:10930C005A686B68002B52D047F2F83CC2F2000C42
:10931C001E689444B4450CBF1A461A4604D0D26851
:10932C0012B111688C45FAD147F2F831C2F2000142
:10933C000C6859687618B44208D0DB68002B35D01D
:10934C00D3F800C0596861448C42F6D119461346D3
:10935C00BBB147F2F832C2F200025468D3F804C031
:10936C00A444C2F804C02A68012A2ED09C68002CA0
:10937C0039D0DE68002E2DD0E660DB68013A9C60A7
:10938C002A6039B147F2F833C2F200035B684A68CD
:10939C00D3184B608546BFF36F8F5DF804CB8CF30D
:1093AC000388BDE8FF5F00BD70BC704713462A6898
:1093BC0012BB47F2F831C2F200018A60CA606960E0
:1093CC00A960012129601146C2E700236B60AB60E4
:1093DC002B60D6E7002AD4D0AB68013A9B682A6090
:1093EC00AB60DE60CDE7002ACBD06B68013ADB685E
:1093FC002A606B609C60C4E7A96847F2F83CC2F233
:10940C00000CC1F80CC0CCF8081001320021CCF8CB
:10941C000C102A60C5F808C09AE700BF4C00002069
:10942C0081B04DF804CD0FF2340C4CF0010CCDF89A
:10943C0004C05DF804CB2DE9FF5FEFF3038C4DF80E
:10944C0004CDC0F800D08D46BFF36F8F5DF804CB10
:10945C008CF30388BDE8FF5F62B600BD704700BFA8
:10946C0040F68C43C2F2000300221A605A609A60E4
:10947C00DA6070473D4B70B41D6850F8043C041F13
:10948C000F2B41D9002240F8044C6360A260E260CB
:10949C00EA68D318EB606B6850F804CC6068002B5A
:1094AC0035D01E686044B0420CBF1A461A4604D030
:1094BC00D26812B111688842FAD159687618B4454D
:1094CC0007D0DB68002B21D01868596841188C45EF
:1094DC00F7D11946134693B160685A6882186260D6
:1094EC00286801281DD09A68002A1FD0DE68002E3B
:1094FC0031D0D660DB689A602B68013B2B6019B1C8
:10950C004A686368D3184B6070BC7047134629686F
:10951C00B1B9A160E1602A686C600132AC602A606C
:10952C00D9E700236B60AB602B60E8E70028E6D03E
:10953C006B68DB686B609A602B68013B2B60DEE725
:10954C00AA680021D460AA68E160A2602A68AC60B5
:10955C0001322A60BFE70028D1D0AB689B68AB60B2
:10956C00DE602B68013B2B60C9E700BF4C0000207C
:10957C000F2A30B405460C4642D941EA000313F0D9
:10958C00030F02BF14468C46034609D0002314F87F
:10959C0003C005F803C001339A42F8D130BC7047C0
:1095AC00DCF80050103C1D60DCF804505D60DCF809
:1095BC0008509D60DCF80C500CF1100CDD60103381
:1095CC000F2CEDD8A2F1100404F00F0224F00F04BC
:1095DC00103405190C19032A12D9002354F803C0AE
:1095EC0045F803C00433C3EB020CBCF1030FF5D8F0
:1095FC00043A22F003030433ED18E41802F00302DA
:08960C00002AC3D1CAE700BF28
:10961400074B10B51A6852B9064C01221A606368E8
:109624002BB10434984754F8043F002BFAD110BDF1
:0896340004000020E099200071
:10963C000000000000000000E14B200048656C6C4D
:10964C006F206D61696E00000A0000005265636551
:10965C006976656420627566666572003D3D3D3DC8
:10966C003D3D3D3D3D3D3D3D3D3D3D3D3D3D3D3D1E
:10967C003D0000005265636569766564200000005A
:10968C00206279746573206F66207061796C6F61EC
:10969C00642066726F6D20003A000000203A0000D2
:1096AC004D6573736167652068617320000000006D
:1096BC00627974657321000048656C6C6F2C2049CD
:1096CC0020616D20746865207265636569766572CA
:1096DC002E000000492077696C6C20617474616302
:1096EC0068206D7973656C6620746F2074686520D2
:1096FC004E494320616E64207072696E74206576E9
:10970C00657279206D6573736167652049206765A3
:10971C00742E000048656C6C6F2C204920616D2004
:10972C007468652073656E6465722E0049207769D4
:10973C006C6C2073656E642061206D65737361675A
:10974C00652065766572792000000000206D6963E4
:10975C00726F7365636F6E64732E000053656E6475
:10976C00696E67206D6573736167653A2000000050
:10977C0053656E740000000020202020204F6C6187
:10978C00206D756E646F00004D4D553A3A616C6CEE
:10979C006F632829206661696C65642100000000F4
:1097AC0050757265205669727475616C206D6574A4
:1097BC00686F642063616C6C6564210030313233F6
:1097CC0034353637383961626364656600000000F1
:1097DC0009024300020100A0190904000001020261
:1097EC0001000524001001042402020524060001D6
:1097FC000524010001070582034000400904010013
:10980C00020A00000007058302200000070504027D
:10981C00000100001201000202000020501D1C601B
:10982C000300000000010000000000000000000028
:10983C00595B2000CD5B20001D5C2000555C200096
:10984C00000000000000000079632000A5632000E8
:10985C009963200000000000000000006D632000F0
:10986C00B5632000F95220005468726561643A3A7D
:10987C0070617373203D3E207468726561642028AA
:10988C000000000029206E6F7420726561647921DC
:10989C0000000000546865206C6173742074687259
:1098AC006561642068617320657869746564210062
:1098BC005265626F6F74696E6720746865206D61A4
:1098CC006368696E65202E2E2E000000526573753C
:1098DC006D652063616C6C656420666F7220756EBB
:1098EC0073757370656E646564206F626A6563740A
:1098FC00210000000000000000000000595B200067
:10990C00CD5B20001D5C2000555C20003D722000CA
:10991C00E1752000297820006D772000F17520007A
:10992C00557A200049722000117220001572200017
:10993C003972200065722000526164696F3A3A698D
:10994C006E745F68616E646C65723A2068616E64F7
:10995C006C6572206E6F742061737369676E6564D9
:10996C00210000004343323533383A3A73656E6454
:10997C00286275663D000000203D3E206661696CE2
:10998C00656421004D616368696E653A3A7265627F
:10999C006F6F74282900000050414E4943210A0082
:1099AC00FFFFFFFF75422000DD422000994420009C
:1099BC00C1442000FD4E20001152200049522000CD
:1099CC0085632000056720000D7220006D94200037
:0499DC000000000087
:0899E000FFFFFFFF0000000083
:040000050020411C7A
:020000040027D3
:0CFFD400FFFFFFEF000000000000200015
:00000001FF
